{
  "_format": "hh-sol-artifact-1",
  "contractName": "CarCarGameLogic",
  "sourceName": "contracts/CarCarGameLogic.sol",
  "abi": [
    {
      "inputs": [
        {
          "internalType": "address",
          "name": "_cctAddress",
          "type": "address"
        },
        {
          "internalType": "address",
          "name": "_carRepairFeeAddress",
          "type": "address"
        }
      ],
      "stateMutability": "nonpayable",
      "type": "constructor"
    },
    {
      "anonymous": false,
      "inputs": [
        {
          "indexed": true,
          "internalType": "address",
          "name": "player",
          "type": "address"
        },
        {
          "indexed": true,
          "internalType": "uint256",
          "name": "carClass",
          "type": "uint256"
        }
      ],
      "name": "CarRepaired",
      "type": "event"
    },
    {
      "anonymous": false,
      "inputs": [
        {
          "indexed": true,
          "internalType": "address",
          "name": "previousOwner",
          "type": "address"
        },
        {
          "indexed": true,
          "internalType": "address",
          "name": "newOwner",
          "type": "address"
        }
      ],
      "name": "OwnershipTransferred",
      "type": "event"
    },
    {
      "anonymous": false,
      "inputs": [
        {
          "indexed": true,
          "internalType": "address",
          "name": "player",
          "type": "address"
        }
      ],
      "name": "PlayerCarBroken",
      "type": "event"
    },
    {
      "anonymous": false,
      "inputs": [
        {
          "indexed": true,
          "internalType": "address",
          "name": "player",
          "type": "address"
        }
      ],
      "name": "PlayerEnterGame",
      "type": "event"
    },
    {
      "anonymous": false,
      "inputs": [
        {
          "indexed": true,
          "internalType": "address",
          "name": "player",
          "type": "address"
        }
      ],
      "name": "PlayerExitGame",
      "type": "event"
    },
    {
      "inputs": [],
      "name": "BURN_ADDRESS",
      "outputs": [
        {
          "internalType": "address",
          "name": "",
          "type": "address"
        }
      ],
      "stateMutability": "view",
      "type": "function"
    },
    {
      "inputs": [
        {
          "internalType": "address",
          "name": "carNftAddress",
          "type": "address"
        },
        {
          "internalType": "uint256",
          "name": "carId",
          "type": "uint256"
        }
      ],
      "name": "carBroken",
      "outputs": [
        {
          "internalType": "bool",
          "name": "",
          "type": "bool"
        }
      ],
      "stateMutability": "view",
      "type": "function"
    },
    {
      "inputs": [],
      "name": "carRepairFeeAddress",
      "outputs": [
        {
          "internalType": "address",
          "name": "",
          "type": "address"
        }
      ],
      "stateMutability": "view",
      "type": "function"
    },
    {
      "inputs": [],
      "name": "cctAddress",
      "outputs": [
        {
          "internalType": "contract IERC20",
          "name": "",
          "type": "address"
        }
      ],
      "stateMutability": "view",
      "type": "function"
    },
    {
      "inputs": [
        {
          "internalType": "address[]",
          "name": "addrs",
          "type": "address[]"
        },
        {
          "internalType": "uint256[]",
          "name": "amounts",
          "type": "uint256[]"
        }
      ],
      "name": "deliverRepairFee",
      "outputs": [],
      "stateMutability": "nonpayable",
      "type": "function"
    },
    {
      "inputs": [
        {
          "internalType": "address",
          "name": "carNftAddress",
          "type": "address"
        },
        {
          "internalType": "uint256",
          "name": "carId",
          "type": "uint256"
        }
      ],
      "name": "enterGame",
      "outputs": [],
      "stateMutability": "nonpayable",
      "type": "function"
    },
    {
      "inputs": [
        {
          "internalType": "address",
          "name": "carNftAddress",
          "type": "address"
        },
        {
          "internalType": "uint256",
          "name": "carId",
          "type": "uint256"
        }
      ],
      "name": "exitGame",
      "outputs": [],
      "stateMutability": "nonpayable",
      "type": "function"
    },
    {
      "inputs": [
        {
          "internalType": "address",
          "name": "",
          "type": "address"
        },
        {
          "internalType": "bytes32",
          "name": "",
          "type": "bytes32"
        }
      ],
      "name": "isCarBroken",
      "outputs": [
        {
          "internalType": "bool",
          "name": "",
          "type": "bool"
        }
      ],
      "stateMutability": "view",
      "type": "function"
    },
    {
      "inputs": [
        {
          "internalType": "address",
          "name": "",
          "type": "address"
        },
        {
          "internalType": "bytes32",
          "name": "",
          "type": "bytes32"
        }
      ],
      "name": "isCarInGame",
      "outputs": [
        {
          "internalType": "bool",
          "name": "",
          "type": "bool"
        }
      ],
      "stateMutability": "view",
      "type": "function"
    },
    {
      "inputs": [],
      "name": "owner",
      "outputs": [
        {
          "internalType": "address",
          "name": "",
          "type": "address"
        }
      ],
      "stateMutability": "view",
      "type": "function"
    },
    {
      "inputs": [],
      "name": "renounceOwnership",
      "outputs": [],
      "stateMutability": "nonpayable",
      "type": "function"
    },
    {
      "inputs": [
        {
          "internalType": "address",
          "name": "carNftAddress",
          "type": "address"
        },
        {
          "internalType": "uint256",
          "name": "carId",
          "type": "uint256"
        }
      ],
      "name": "repair",
      "outputs": [],
      "stateMutability": "nonpayable",
      "type": "function"
    },
    {
      "inputs": [
        {
          "internalType": "address",
          "name": "carNftAddress",
          "type": "address"
        },
        {
          "internalType": "uint256",
          "name": "carId",
          "type": "uint256"
        },
        {
          "internalType": "address",
          "name": "player",
          "type": "address"
        }
      ],
      "name": "setCarBroken",
      "outputs": [],
      "stateMutability": "nonpayable",
      "type": "function"
    },
    {
      "inputs": [
        {
          "internalType": "address",
          "name": "newOwner",
          "type": "address"
        }
      ],
      "name": "transferOwnership",
      "outputs": [],
      "stateMutability": "nonpayable",
      "type": "function"
    }
  ],
  "bytecode": "0x60806040523480156200001157600080fd5b5060405162001fee38038062001fee8339818101604052810190620000379190620001c4565b620000576200004b620000e160201b60201c565b620000e960201b60201c565b81600360006101000a81548173ffffffffffffffffffffffffffffffffffffffff021916908373ffffffffffffffffffffffffffffffffffffffff16021790555080600460006101000a81548173ffffffffffffffffffffffffffffffffffffffff021916908373ffffffffffffffffffffffffffffffffffffffff160217905550505062000253565b600033905090565b60008060009054906101000a900473ffffffffffffffffffffffffffffffffffffffff169050816000806101000a81548173ffffffffffffffffffffffffffffffffffffffff021916908373ffffffffffffffffffffffffffffffffffffffff1602179055508173ffffffffffffffffffffffffffffffffffffffff168173ffffffffffffffffffffffffffffffffffffffff167f8be0079c531659141344cd1fd0a4f28419497f9722a3daafe3b4186f6b6457e060405160405180910390a35050565b600081519050620001be8162000239565b92915050565b60008060408385031215620001d857600080fd5b6000620001e885828601620001ad565b9250506020620001fb85828601620001ad565b9150509250929050565b6000620002128262000219565b9050919050565b600073ffffffffffffffffffffffffffffffffffffffff82169050919050565b620002448162000205565b81146200025057600080fd5b50565b611d8b80620002636000396000f3fe608060405234801561001057600080fd5b50600436106100ea5760003560e01c8063715018a61161008c578063ddb69fa711610066578063ddb69fa714610237578063f2fde38b14610253578063f953bf071461026f578063fccc28131461028b576100ea565b8063715018a6146101df57806379a67463146101e95780638da5cb5b14610219576100ea565b8063253f65e8116100c8578063253f65e814610159578063684c9705146101775780636caf3d60146101a75780636f14e1e1146101c3576100ea565b806303bd3460146100ef578063178228f11461010d578063244ef00e14610129575b600080fd5b6100f76102a9565b6040516101049190611776565b60405180910390f35b61012760048036038101906101229190611432565b6102cf565b005b610143600480360381019061013e9190611432565b6104c0565b60405161015091906117f1565b60405180910390f35b610161610555565b60405161016e919061180c565b60405180910390f35b610191600480360381019061018c91906113f6565b61057b565b60405161019e91906117f1565b60405180910390f35b6101c160048036038101906101bc91906114bd565b6105aa565b005b6101dd60048036038101906101d89190611432565b610772565b005b6101e7610924565b005b61020360048036038101906101fe91906113f6565b6109ac565b60405161021091906117f1565b60405180910390f35b6102216109db565b60405161022e9190611776565b60405180910390f35b610251600480360381019061024c919061146e565b610a04565b005b61026d600480360381019061026891906113cd565b610bfb565b005b61028960048036038101906102849190611432565b610cf3565b005b610293610f0b565b6040516102a09190611776565b60405180910390f35b600460009054906101000a900473ffffffffffffffffffffffffffffffffffffffff1681565b6000339050600083836040516020016102e99291906117c8565b604051602081830303815290604052805190602001209050600260008373ffffffffffffffffffffffffffffffffffffffff1673ffffffffffffffffffffffffffffffffffffffff168152602001908152602001600020600082815260200190815260200160002060009054906101000a900460ff161561039f576040517f08c379a000000000000000000000000000000000000000000000000000000000815260040161039690611849565b60405180910390fd5b6001600260008473ffffffffffffffffffffffffffffffffffffffff1673ffffffffffffffffffffffffffffffffffffffff168152602001908152602001600020600083815260200190815260200160002060006101000a81548160ff0219169083151502179055508373ffffffffffffffffffffffffffffffffffffffff166323b872dd8330866040518463ffffffff1660e01b815260040161044593929190611791565b600060405180830381600087803b15801561045f57600080fd5b505af1158015610473573d6000803e3d6000fd5b505050508173ffffffffffffffffffffffffffffffffffffffff167fb9ce3a6f83e26002ad47d527f7eb0d1ee923e2032d592131e47d87578e824d6660405160405180910390a250505050565b60008083836040516020016104d69291906117c8565b604051602081830303815290604052805190602001209050600160003373ffffffffffffffffffffffffffffffffffffffff1673ffffffffffffffffffffffffffffffffffffffff168152602001908152602001600020600082815260200190815260200160002060009054906101000a900460ff1691505092915050565b600360009054906101000a900473ffffffffffffffffffffffffffffffffffffffff1681565b60016020528160005260406000206020528060005260406000206000915091509054906101000a900460ff1681565b6105b2610f23565b73ffffffffffffffffffffffffffffffffffffffff166105d06109db565b73ffffffffffffffffffffffffffffffffffffffff1614610626576040517f08c379a000000000000000000000000000000000000000000000000000000000815260040161061d90611909565b60405180910390fd5b81819050848490501461066e576040517f08c379a000000000000000000000000000000000000000000000000000000000815260040161066590611949565b60405180910390fd5b60005b8484905081101561076b57610758600360009054906101000a900473ffffffffffffffffffffffffffffffffffffffff16600460009054906101000a900473ffffffffffffffffffffffffffffffffffffffff168787858181106106fe577f4e487b7100000000000000000000000000000000000000000000000000000000600052603260045260246000fd5b905060200201602081019061071391906113cd565b86868681811061074c577f4e487b7100000000000000000000000000000000000000000000000000000000600052603260045260246000fd5b90506020020135610f2b565b808061076390611a64565b915050610671565b5050505050565b60003390506000838360405160200161078c9291906117c8565b604051602081830303815290604052805190602001209050600160008373ffffffffffffffffffffffffffffffffffffffff1673ffffffffffffffffffffffffffffffffffffffff168152602001908152602001600020600082815260200190815260200160002060009054906101000a900460ff166108e3576000600260008473ffffffffffffffffffffffffffffffffffffffff1673ffffffffffffffffffffffffffffffffffffffff168152602001908152602001600020600083815260200190815260200160002060006101000a81548160ff0219169083151502179055508373ffffffffffffffffffffffffffffffffffffffff166323b872dd3084866040518463ffffffff1660e01b81526004016108ac93929190611791565b600060405180830381600087803b1580156108c657600080fd5b505af11580156108da573d6000803e3d6000fd5b5050505061091e565b6040517f08c379a0000000000000000000000000000000000000000000000000000000008152600401610915906118a9565b60405180910390fd5b50505050565b61092c610f23565b73ffffffffffffffffffffffffffffffffffffffff1661094a6109db565b73ffffffffffffffffffffffffffffffffffffffff16146109a0576040517f08c379a000000000000000000000000000000000000000000000000000000000815260040161099790611909565b60405180910390fd5b6109aa6000610fb4565b565b60026020528160005260406000206020528060005260406000206000915091509054906101000a900460ff1681565b60008060009054906101000a900473ffffffffffffffffffffffffffffffffffffffff16905090565b610a0c610f23565b73ffffffffffffffffffffffffffffffffffffffff16610a2a6109db565b73ffffffffffffffffffffffffffffffffffffffff1614610a80576040517f08c379a0000000000000000000000000000000000000000000000000000000008152600401610a7790611909565b60405180910390fd5b60008383604051602001610a959291906117c8565b604051602081830303815290604052805190602001209050600260008373ffffffffffffffffffffffffffffffffffffffff1673ffffffffffffffffffffffffffffffffffffffff168152602001908152602001600020600082815260200190815260200160002060009054906101000a900460ff16610b4a576040517f08c379a0000000000000000000000000000000000000000000000000000000008152600401610b41906118c9565b60405180910390fd5b60018060008473ffffffffffffffffffffffffffffffffffffffff1673ffffffffffffffffffffffffffffffffffffffff168152602001908152602001600020600083815260200190815260200160002060006101000a81548160ff0219169083151502179055508173ffffffffffffffffffffffffffffffffffffffff167f7416ee372fa1f68c2b850f6ccdae5cd2a316318817ac9e44c1aae1650d9d639860405160405180910390a250505050565b610c03610f23565b73ffffffffffffffffffffffffffffffffffffffff16610c216109db565b73ffffffffffffffffffffffffffffffffffffffff1614610c77576040517f08c379a0000000000000000000000000000000000000000000000000000000008152600401610c6e90611909565b60405180910390fd5b600073ffffffffffffffffffffffffffffffffffffffff168173ffffffffffffffffffffffffffffffffffffffff161415610ce7576040517f08c379a0000000000000000000000000000000000000000000000000000000008152600401610cde90611869565b60405180910390fd5b610cf081610fb4565b50565b600033905060008383604051602001610d0d9291906117c8565b604051602081830303815290604052805190602001209050600160008373ffffffffffffffffffffffffffffffffffffffff1673ffffffffffffffffffffffffffffffffffffffff168152602001908152602001600020600082815260200190815260200160002060009054906101000a900460ff16610dc2576040517f08c379a0000000000000000000000000000000000000000000000000000000008152600401610db9906118e9565b60405180910390fd5b6000600160008473ffffffffffffffffffffffffffffffffffffffff1673ffffffffffffffffffffffffffffffffffffffff168152602001908152602001600020600083815260200190815260200160002060006101000a81548160ff021916908315150217905550610e6f600360009054906101000a900473ffffffffffffffffffffffffffffffffffffffff168373eeeeeeeeeeeeeeeeeeeeeeeeeeeeeeeeeeeeeeee611388610f2b565b610ec1600360009054906101000a900473ffffffffffffffffffffffffffffffffffffffff1683600460009054906101000a900473ffffffffffffffffffffffffffffffffffffffff16611388610f2b565b828273ffffffffffffffffffffffffffffffffffffffff167ffd1b7d3038545bc4556db56930eddda6929ae3834c05867c9b71fc4db8af8b8160405160405180910390a350505050565b73eeeeeeeeeeeeeeeeeeeeeeeeeeeeeeeeeeeeeeee81565b600033905090565b610fae846323b872dd60e01b858585604051602401610f4c93929190611791565b604051602081830303815290604052907bffffffffffffffffffffffffffffffffffffffffffffffffffffffff19166020820180517bffffffffffffffffffffffffffffffffffffffffffffffffffffffff8381831617835250505050611078565b50505050565b60008060009054906101000a900473ffffffffffffffffffffffffffffffffffffffff169050816000806101000a81548173ffffffffffffffffffffffffffffffffffffffff021916908373ffffffffffffffffffffffffffffffffffffffff1602179055508173ffffffffffffffffffffffffffffffffffffffff168173ffffffffffffffffffffffffffffffffffffffff167f8be0079c531659141344cd1fd0a4f28419497f9722a3daafe3b4186f6b6457e060405160405180910390a35050565b60006110da826040518060400160405280602081526020017f5361666545524332303a206c6f772d6c6576656c2063616c6c206661696c65648152508573ffffffffffffffffffffffffffffffffffffffff1661113f9092919063ffffffff16565b905060008151111561113a57808060200190518101906110fa9190611532565b611139576040517f08c379a000000000000000000000000000000000000000000000000000000000815260040161113090611969565b60405180910390fd5b5b505050565b606061114e8484600085611157565b90509392505050565b60608247101561119c576040517f08c379a000000000000000000000000000000000000000000000000000000000815260040161119390611889565b60405180910390fd5b6111a58561126b565b6111e4576040517f08c379a00000000000000000000000000000000000000000000000000000000081526004016111db90611929565b60405180910390fd5b6000808673ffffffffffffffffffffffffffffffffffffffff16858760405161120d919061175f565b60006040518083038185875af1925050503d806000811461124a576040519150601f19603f3d011682016040523d82523d6000602084013e61124f565b606091505b509150915061125f82828661127e565b92505050949350505050565b600080823b905060008111915050919050565b6060831561128e578290506112de565b6000835111156112a15782518084602001fd5b816040517f08c379a00000000000000000000000000000000000000000000000000000000081526004016112d59190611827565b60405180910390fd5b9392505050565b6000813590506112f481611cf9565b92915050565b60008083601f84011261130c57600080fd5b8235905067ffffffffffffffff81111561132557600080fd5b60208301915083602082028301111561133d57600080fd5b9250929050565b60008083601f84011261135657600080fd5b8235905067ffffffffffffffff81111561136f57600080fd5b60208301915083602082028301111561138757600080fd5b9250929050565b60008151905061139d81611d10565b92915050565b6000813590506113b281611d27565b92915050565b6000813590506113c781611d3e565b92915050565b6000602082840312156113df57600080fd5b60006113ed848285016112e5565b91505092915050565b6000806040838503121561140957600080fd5b6000611417858286016112e5565b9250506020611428858286016113a3565b9150509250929050565b6000806040838503121561144557600080fd5b6000611453858286016112e5565b9250506020611464858286016113b8565b9150509250929050565b60008060006060848603121561148357600080fd5b6000611491868287016112e5565b93505060206114a2868287016113b8565b92505060406114b3868287016112e5565b9150509250925092565b600080600080604085870312156114d357600080fd5b600085013567ffffffffffffffff8111156114ed57600080fd5b6114f9878288016112fa565b9450945050602085013567ffffffffffffffff81111561151857600080fd5b61152487828801611344565b925092505092959194509250565b60006020828403121561154457600080fd5b60006115528482850161138e565b91505092915050565b611564816119bb565b82525050565b611573816119cd565b82525050565b600061158482611989565b61158e818561199f565b935061159e818560208601611a31565b80840191505092915050565b6115b381611a0d565b82525050565b60006115c482611994565b6115ce81856119aa565b93506115de818560208601611a31565b6115e781611adc565b840191505092915050565b60006115ff6011836119aa565b915061160a82611aed565b602082019050919050565b60006116226026836119aa565b915061162d82611b16565b604082019050919050565b60006116456026836119aa565b915061165082611b65565b604082019050919050565b60006116686017836119aa565b915061167382611bb4565b602082019050919050565b600061168b601c836119aa565b915061169682611bdd565b602082019050919050565b60006116ae6014836119aa565b91506116b982611c06565b602082019050919050565b60006116d16020836119aa565b91506116dc82611c2f565b602082019050919050565b60006116f4601d836119aa565b91506116ff82611c58565b602082019050919050565b60006117176016836119aa565b915061172282611c81565b602082019050919050565b600061173a602a836119aa565b915061174582611caa565b604082019050919050565b61175981611a03565b82525050565b600061176b8284611579565b915081905092915050565b600060208201905061178b600083018461155b565b92915050565b60006060820190506117a6600083018661155b565b6117b3602083018561155b565b6117c06040830184611750565b949350505050565b60006040820190506117dd600083018561155b565b6117ea6020830184611750565b9392505050565b6000602082019050611806600083018461156a565b92915050565b600060208201905061182160008301846115aa565b92915050565b6000602082019050818103600083015261184181846115b9565b905092915050565b60006020820190508181036000830152611862816115f2565b9050919050565b6000602082019050818103600083015261188281611615565b9050919050565b600060208201905081810360008301526118a281611638565b9050919050565b600060208201905081810360008301526118c28161165b565b9050919050565b600060208201905081810360008301526118e28161167e565b9050919050565b60006020820190508181036000830152611902816116a1565b9050919050565b60006020820190508181036000830152611922816116c4565b9050919050565b60006020820190508181036000830152611942816116e7565b9050919050565b600060208201905081810360008301526119628161170a565b9050919050565b600060208201905081810360008301526119828161172d565b9050919050565b600081519050919050565b600081519050919050565b600081905092915050565b600082825260208201905092915050565b60006119c6826119e3565b9050919050565b60008115159050919050565b6000819050919050565b600073ffffffffffffffffffffffffffffffffffffffff82169050919050565b6000819050919050565b6000611a1882611a1f565b9050919050565b6000611a2a826119e3565b9050919050565b60005b83811015611a4f578082015181840152602081019050611a34565b83811115611a5e576000848401525b50505050565b6000611a6f82611a03565b91507fffffffffffffffffffffffffffffffffffffffffffffffffffffffffffffffff821415611aa257611aa1611aad565b5b600182019050919050565b7f4e487b7100000000000000000000000000000000000000000000000000000000600052601160045260246000fd5b6000601f19601f8301169050919050565b7f4343474c3a2043617220696e2067616d65000000000000000000000000000000600082015250565b7f4f776e61626c653a206e6577206f776e657220697320746865207a65726f206160008201527f6464726573730000000000000000000000000000000000000000000000000000602082015250565b7f416464726573733a20696e73756666696369656e742062616c616e636520666f60008201527f722063616c6c0000000000000000000000000000000000000000000000000000602082015250565b7f4343474c3a20506c61796572206361722062726f6b656e000000000000000000600082015250565b7f4343474c3a20506c6179657220636172206e6f7420696e2067616d6500000000600082015250565b7f4343474c3a20436172206e6f742062726f6b656e000000000000000000000000600082015250565b7f4f776e61626c653a2063616c6c6572206973206e6f7420746865206f776e6572600082015250565b7f416464726573733a2063616c6c20746f206e6f6e2d636f6e7472616374000000600082015250565b7f4343474c3a204c656e677468206e6f7420657175616c00000000000000000000600082015250565b7f5361666545524332303a204552433230206f7065726174696f6e20646964206e60008201527f6f74207375636365656400000000000000000000000000000000000000000000602082015250565b611d02816119bb565b8114611d0d57600080fd5b50565b611d19816119cd565b8114611d2457600080fd5b50565b611d30816119d9565b8114611d3b57600080fd5b50565b611d4781611a03565b8114611d5257600080fd5b5056fea2646970667358221220583937829634a61e57681e8e8bfdbec0cd97e66227656afd717d868f3e3b5c2e64736f6c63430008040033",
  "linkReferences": {},
  "deployedLinkReferences": {}
}