{
  "_format": "hh-sol-artifact-1",
  "contractName": "SSRTierCar",
  "sourceName": "contracts/cars/SSRTierCar.sol",
  "abi": [
    {
      "inputs": [],
      "stateMutability": "nonpayable",
      "type": "constructor"
    },
    {
      "anonymous": false,
      "inputs": [
        {
          "indexed": true,
          "internalType": "address",
          "name": "owner",
          "type": "address"
        },
        {
          "indexed": true,
          "internalType": "address",
          "name": "approved",
          "type": "address"
        },
        {
          "indexed": true,
          "internalType": "uint256",
          "name": "tokenId",
          "type": "uint256"
        }
      ],
      "name": "Approval",
      "type": "event"
    },
    {
      "anonymous": false,
      "inputs": [
        {
          "indexed": true,
          "internalType": "address",
          "name": "owner",
          "type": "address"
        },
        {
          "indexed": true,
          "internalType": "address",
          "name": "operator",
          "type": "address"
        },
        {
          "indexed": false,
          "internalType": "bool",
          "name": "approved",
          "type": "bool"
        }
      ],
      "name": "ApprovalForAll",
      "type": "event"
    },
    {
      "anonymous": false,
      "inputs": [
        {
          "indexed": true,
          "internalType": "address",
          "name": "previousOwner",
          "type": "address"
        },
        {
          "indexed": true,
          "internalType": "address",
          "name": "newOwner",
          "type": "address"
        }
      ],
      "name": "OwnershipTransferred",
      "type": "event"
    },
    {
      "anonymous": false,
      "inputs": [
        {
          "indexed": true,
          "internalType": "address",
          "name": "from",
          "type": "address"
        },
        {
          "indexed": true,
          "internalType": "address",
          "name": "to",
          "type": "address"
        },
        {
          "indexed": true,
          "internalType": "uint256",
          "name": "tokenId",
          "type": "uint256"
        }
      ],
      "name": "Transfer",
      "type": "event"
    },
    {
      "inputs": [
        {
          "internalType": "address",
          "name": "to",
          "type": "address"
        },
        {
          "internalType": "uint256",
          "name": "tokenId",
          "type": "uint256"
        }
      ],
      "name": "approve",
      "outputs": [],
      "stateMutability": "nonpayable",
      "type": "function"
    },
    {
      "inputs": [
        {
          "internalType": "address",
          "name": "owner",
          "type": "address"
        }
      ],
      "name": "balanceOf",
      "outputs": [
        {
          "internalType": "uint256",
          "name": "",
          "type": "uint256"
        }
      ],
      "stateMutability": "view",
      "type": "function"
    },
    {
      "inputs": [
        {
          "internalType": "uint256",
          "name": "tokenId",
          "type": "uint256"
        }
      ],
      "name": "burn",
      "outputs": [],
      "stateMutability": "nonpayable",
      "type": "function"
    },
    {
      "inputs": [
        {
          "internalType": "uint256",
          "name": "tokenId",
          "type": "uint256"
        }
      ],
      "name": "getApproved",
      "outputs": [
        {
          "internalType": "address",
          "name": "",
          "type": "address"
        }
      ],
      "stateMutability": "view",
      "type": "function"
    },
    {
      "inputs": [
        {
          "internalType": "address",
          "name": "owner",
          "type": "address"
        },
        {
          "internalType": "address",
          "name": "operator",
          "type": "address"
        }
      ],
      "name": "isApprovedForAll",
      "outputs": [
        {
          "internalType": "bool",
          "name": "",
          "type": "bool"
        }
      ],
      "stateMutability": "view",
      "type": "function"
    },
    {
      "inputs": [],
      "name": "name",
      "outputs": [
        {
          "internalType": "string",
          "name": "",
          "type": "string"
        }
      ],
      "stateMutability": "view",
      "type": "function"
    },
    {
      "inputs": [],
      "name": "owner",
      "outputs": [
        {
          "internalType": "address",
          "name": "",
          "type": "address"
        }
      ],
      "stateMutability": "view",
      "type": "function"
    },
    {
      "inputs": [
        {
          "internalType": "uint256",
          "name": "tokenId",
          "type": "uint256"
        }
      ],
      "name": "ownerOf",
      "outputs": [
        {
          "internalType": "address",
          "name": "",
          "type": "address"
        }
      ],
      "stateMutability": "view",
      "type": "function"
    },
    {
      "inputs": [],
      "name": "renounceOwnership",
      "outputs": [],
      "stateMutability": "nonpayable",
      "type": "function"
    },
    {
      "inputs": [
        {
          "internalType": "address",
          "name": "to",
          "type": "address"
        }
      ],
      "name": "safeMint",
      "outputs": [],
      "stateMutability": "nonpayable",
      "type": "function"
    },
    {
      "inputs": [
        {
          "internalType": "address",
          "name": "from",
          "type": "address"
        },
        {
          "internalType": "address",
          "name": "to",
          "type": "address"
        },
        {
          "internalType": "uint256",
          "name": "tokenId",
          "type": "uint256"
        }
      ],
      "name": "safeTransferFrom",
      "outputs": [],
      "stateMutability": "nonpayable",
      "type": "function"
    },
    {
      "inputs": [
        {
          "internalType": "address",
          "name": "from",
          "type": "address"
        },
        {
          "internalType": "address",
          "name": "to",
          "type": "address"
        },
        {
          "internalType": "uint256",
          "name": "tokenId",
          "type": "uint256"
        },
        {
          "internalType": "bytes",
          "name": "_data",
          "type": "bytes"
        }
      ],
      "name": "safeTransferFrom",
      "outputs": [],
      "stateMutability": "nonpayable",
      "type": "function"
    },
    {
      "inputs": [
        {
          "internalType": "address",
          "name": "operator",
          "type": "address"
        },
        {
          "internalType": "bool",
          "name": "approved",
          "type": "bool"
        }
      ],
      "name": "setApprovalForAll",
      "outputs": [],
      "stateMutability": "nonpayable",
      "type": "function"
    },
    {
      "inputs": [
        {
          "internalType": "bytes4",
          "name": "interfaceId",
          "type": "bytes4"
        }
      ],
      "name": "supportsInterface",
      "outputs": [
        {
          "internalType": "bool",
          "name": "",
          "type": "bool"
        }
      ],
      "stateMutability": "view",
      "type": "function"
    },
    {
      "inputs": [],
      "name": "symbol",
      "outputs": [
        {
          "internalType": "string",
          "name": "",
          "type": "string"
        }
      ],
      "stateMutability": "view",
      "type": "function"
    },
    {
      "inputs": [
        {
          "internalType": "uint256",
          "name": "tokenId",
          "type": "uint256"
        }
      ],
      "name": "tokenURI",
      "outputs": [
        {
          "internalType": "string",
          "name": "",
          "type": "string"
        }
      ],
      "stateMutability": "view",
      "type": "function"
    },
    {
      "inputs": [
        {
          "internalType": "address",
          "name": "from",
          "type": "address"
        },
        {
          "internalType": "address",
          "name": "to",
          "type": "address"
        },
        {
          "internalType": "uint256",
          "name": "tokenId",
          "type": "uint256"
        }
      ],
      "name": "transferFrom",
      "outputs": [],
      "stateMutability": "nonpayable",
      "type": "function"
    },
    {
      "inputs": [
        {
          "internalType": "address",
          "name": "newOwner",
          "type": "address"
        }
      ],
      "name": "transferOwnership",
      "outputs": [],
      "stateMutability": "nonpayable",
      "type": "function"
    }
  ],
  "bytecode": "0x60806040523480156200001157600080fd5b506040518060400160405280601981526020017f53757065722053757065722052617265205469657220436172000000000000008152506040518060400160405280600381526020017f5353520000000000000000000000000000000000000000000000000000000000815250816000908051906020019062000096929190620001a6565b508060019080519060200190620000af929190620001a6565b505050620000d2620000c6620000d860201b60201c565b620000e060201b60201c565b620002bb565b600033905090565b6000600660009054906101000a900473ffffffffffffffffffffffffffffffffffffffff16905081600660006101000a81548173ffffffffffffffffffffffffffffffffffffffff021916908373ffffffffffffffffffffffffffffffffffffffff1602179055508173ffffffffffffffffffffffffffffffffffffffff168173ffffffffffffffffffffffffffffffffffffffff167f8be0079c531659141344cd1fd0a4f28419497f9722a3daafe3b4186f6b6457e060405160405180910390a35050565b828054620001b49062000256565b90600052602060002090601f016020900481019282620001d8576000855562000224565b82601f10620001f357805160ff191683800117855562000224565b8280016001018555821562000224579182015b828111156200022357825182559160200191906001019062000206565b5b50905062000233919062000237565b5090565b5b808211156200025257600081600090555060010162000238565b5090565b600060028204905060018216806200026f57607f821691505b602082108114156200028657620002856200028c565b5b50919050565b7f4e487b7100000000000000000000000000000000000000000000000000000000600052602260045260246000fd5b612dba80620002cb6000396000f3fe608060405234801561001057600080fd5b50600436106101165760003560e01c806370a08231116100a2578063a22cb46511610071578063a22cb465146102cb578063b88d4fde146102e7578063c87b56dd14610303578063e985e9c514610333578063f2fde38b1461036357610116565b806370a0823114610255578063715018a6146102855780638da5cb5b1461028f57806395d89b41146102ad57610116565b806323b872dd116100e957806323b872dd146101b557806340d097c3146101d157806342842e0e146101ed57806342966c68146102095780636352211e1461022557610116565b806301ffc9a71461011b57806306fdde031461014b578063081812fc14610169578063095ea7b314610199575b600080fd5b61013560048036038101906101309190611e2c565b61037f565b6040516101429190612255565b60405180910390f35b610153610461565b6040516101609190612270565b60405180910390f35b610183600480360381019061017e9190611e7e565b6104f3565b60405161019091906121ee565b60405180910390f35b6101b360048036038101906101ae9190611df0565b610578565b005b6101cf60048036038101906101ca9190611cea565b610690565b005b6101eb60048036038101906101e69190611c85565b6106f0565b005b61020760048036038101906102029190611cea565b610792565b005b610223600480360381019061021e9190611e7e565b6107b2565b005b61023f600480360381019061023a9190611e7e565b61080e565b60405161024c91906121ee565b60405180910390f35b61026f600480360381019061026a9190611c85565b6108c0565b60405161027c91906124b2565b60405180910390f35b61028d610978565b005b610297610a00565b6040516102a491906121ee565b60405180910390f35b6102b5610a2a565b6040516102c29190612270565b60405180910390f35b6102e560048036038101906102e09190611db4565b610abc565b005b61030160048036038101906102fc9190611d39565b610c3d565b005b61031d60048036038101906103189190611e7e565b610c9f565b60405161032a9190612270565b60405180910390f35b61034d60048036038101906103489190611cae565b610d46565b60405161035a9190612255565b60405180910390f35b61037d60048036038101906103789190611c85565b610dda565b005b60007f80ac58cd000000000000000000000000000000000000000000000000000000007bffffffffffffffffffffffffffffffffffffffffffffffffffffffff1916827bffffffffffffffffffffffffffffffffffffffffffffffffffffffff1916148061044a57507f5b5e139f000000000000000000000000000000000000000000000000000000007bffffffffffffffffffffffffffffffffffffffffffffffffffffffff1916827bffffffffffffffffffffffffffffffffffffffffffffffffffffffff1916145b8061045a575061045982610ed2565b5b9050919050565b606060008054610470906126d7565b80601f016020809104026020016040519081016040528092919081815260200182805461049c906126d7565b80156104e95780601f106104be576101008083540402835291602001916104e9565b820191906000526020600020905b8154815290600101906020018083116104cc57829003601f168201915b5050505050905090565b60006104fe82610f3c565b61053d576040517f08c379a0000000000000000000000000000000000000000000000000000000008152600401610534906123d2565b60405180910390fd5b6004600083815260200190815260200160002060009054906101000a900473ffffffffffffffffffffffffffffffffffffffff169050919050565b60006105838261080e565b90508073ffffffffffffffffffffffffffffffffffffffff168373ffffffffffffffffffffffffffffffffffffffff1614156105f4576040517f08c379a00000000000000000000000000000000000000000000000000000000081526004016105eb90612452565b60405180910390fd5b8073ffffffffffffffffffffffffffffffffffffffff16610613610fa8565b73ffffffffffffffffffffffffffffffffffffffff16148061064257506106418161063c610fa8565b610d46565b5b610681576040517f08c379a000000000000000000000000000000000000000000000000000000000815260040161067890612352565b60405180910390fd5b61068b8383610fb0565b505050565b6106a161069b610fa8565b82611069565b6106e0576040517f08c379a00000000000000000000000000000000000000000000000000000000081526004016106d790612472565b60405180910390fd5b6106eb838383611147565b505050565b6106f8610fa8565b73ffffffffffffffffffffffffffffffffffffffff16610716610a00565b73ffffffffffffffffffffffffffffffffffffffff161461076c576040517f08c379a0000000000000000000000000000000000000000000000000000000008152600401610763906123f2565b60405180910390fd5b600061077860076113a3565b905061078460076113b1565b61078e82826113c7565b5050565b6107ad83838360405180602001604052806000815250610c3d565b505050565b6107c36107bd610fa8565b82611069565b610802576040517f08c379a00000000000000000000000000000000000000000000000000000000081526004016107f990612492565b60405180910390fd5b61080b816113e5565b50565b6000806002600084815260200190815260200160002060009054906101000a900473ffffffffffffffffffffffffffffffffffffffff169050600073ffffffffffffffffffffffffffffffffffffffff168173ffffffffffffffffffffffffffffffffffffffff1614156108b7576040517f08c379a00000000000000000000000000000000000000000000000000000000081526004016108ae90612392565b60405180910390fd5b80915050919050565b60008073ffffffffffffffffffffffffffffffffffffffff168273ffffffffffffffffffffffffffffffffffffffff161415610931576040517f08c379a000000000000000000000000000000000000000000000000000000000815260040161092890612372565b60405180910390fd5b600360008373ffffffffffffffffffffffffffffffffffffffff1673ffffffffffffffffffffffffffffffffffffffff168152602001908152602001600020549050919050565b610980610fa8565b73ffffffffffffffffffffffffffffffffffffffff1661099e610a00565b73ffffffffffffffffffffffffffffffffffffffff16146109f4576040517f08c379a00000000000000000000000000000000000000000000000000000000081526004016109eb906123f2565b60405180910390fd5b6109fe60006114f6565b565b6000600660009054906101000a900473ffffffffffffffffffffffffffffffffffffffff16905090565b606060018054610a39906126d7565b80601f0160208091040260200160405190810160405280929190818152602001828054610a65906126d7565b8015610ab25780601f10610a8757610100808354040283529160200191610ab2565b820191906000526020600020905b815481529060010190602001808311610a9557829003601f168201915b5050505050905090565b610ac4610fa8565b73ffffffffffffffffffffffffffffffffffffffff168273ffffffffffffffffffffffffffffffffffffffff161415610b32576040517f08c379a0000000000000000000000000000000000000000000000000000000008152600401610b2990612312565b60405180910390fd5b8060056000610b3f610fa8565b73ffffffffffffffffffffffffffffffffffffffff1673ffffffffffffffffffffffffffffffffffffffff16815260200190815260200160002060008473ffffffffffffffffffffffffffffffffffffffff1673ffffffffffffffffffffffffffffffffffffffff16815260200190815260200160002060006101000a81548160ff0219169083151502179055508173ffffffffffffffffffffffffffffffffffffffff16610bec610fa8565b73ffffffffffffffffffffffffffffffffffffffff167f17307eab39ab6107e8899845ad3d59bd9653f200f220920489ca2b5937696c3183604051610c319190612255565b60405180910390a35050565b610c4e610c48610fa8565b83611069565b610c8d576040517f08c379a0000000000000000000000000000000000000000000000000000000008152600401610c8490612472565b60405180910390fd5b610c99848484846115bc565b50505050565b6060610caa82610f3c565b610ce9576040517f08c379a0000000000000000000000000000000000000000000000000000000008152600401610ce090612432565b60405180910390fd5b6000610cf3611618565b90506000815111610d135760405180602001604052806000815250610d3e565b80610d1d8461162f565b604051602001610d2e9291906121ca565b6040516020818303038152906040525b915050919050565b6000600560008473ffffffffffffffffffffffffffffffffffffffff1673ffffffffffffffffffffffffffffffffffffffff16815260200190815260200160002060008373ffffffffffffffffffffffffffffffffffffffff1673ffffffffffffffffffffffffffffffffffffffff16815260200190815260200160002060009054906101000a900460ff16905092915050565b610de2610fa8565b73ffffffffffffffffffffffffffffffffffffffff16610e00610a00565b73ffffffffffffffffffffffffffffffffffffffff1614610e56576040517f08c379a0000000000000000000000000000000000000000000000000000000008152600401610e4d906123f2565b60405180910390fd5b600073ffffffffffffffffffffffffffffffffffffffff168173ffffffffffffffffffffffffffffffffffffffff161415610ec6576040517f08c379a0000000000000000000000000000000000000000000000000000000008152600401610ebd906122b2565b60405180910390fd5b610ecf816114f6565b50565b60007f01ffc9a7000000000000000000000000000000000000000000000000000000007bffffffffffffffffffffffffffffffffffffffffffffffffffffffff1916827bffffffffffffffffffffffffffffffffffffffffffffffffffffffff1916149050919050565b60008073ffffffffffffffffffffffffffffffffffffffff166002600084815260200190815260200160002060009054906101000a900473ffffffffffffffffffffffffffffffffffffffff1673ffffffffffffffffffffffffffffffffffffffff1614159050919050565b600033905090565b816004600083815260200190815260200160002060006101000a81548173ffffffffffffffffffffffffffffffffffffffff021916908373ffffffffffffffffffffffffffffffffffffffff160217905550808273ffffffffffffffffffffffffffffffffffffffff166110238361080e565b73ffffffffffffffffffffffffffffffffffffffff167f8c5be1e5ebec7d5bd14f71427d1e84f3dd0314c0f7b2291e5b200ac8c7c3b92560405160405180910390a45050565b600061107482610f3c565b6110b3576040517f08c379a00000000000000000000000000000000000000000000000000000000081526004016110aa90612332565b60405180910390fd5b60006110be8361080e565b90508073ffffffffffffffffffffffffffffffffffffffff168473ffffffffffffffffffffffffffffffffffffffff16148061112d57508373ffffffffffffffffffffffffffffffffffffffff16611115846104f3565b73ffffffffffffffffffffffffffffffffffffffff16145b8061113e575061113d8185610d46565b5b91505092915050565b8273ffffffffffffffffffffffffffffffffffffffff166111678261080e565b73ffffffffffffffffffffffffffffffffffffffff16146111bd576040517f08c379a00000000000000000000000000000000000000000000000000000000081526004016111b490612412565b60405180910390fd5b600073ffffffffffffffffffffffffffffffffffffffff168273ffffffffffffffffffffffffffffffffffffffff16141561122d576040517f08c379a0000000000000000000000000000000000000000000000000000000008152600401611224906122f2565b60405180910390fd5b6112388383836117dc565b611243600082610fb0565b6001600360008573ffffffffffffffffffffffffffffffffffffffff1673ffffffffffffffffffffffffffffffffffffffff168152602001908152602001600020600082825461129391906125ed565b925050819055506001600360008473ffffffffffffffffffffffffffffffffffffffff1673ffffffffffffffffffffffffffffffffffffffff16815260200190815260200160002060008282546112ea9190612566565b92505081905550816002600083815260200190815260200160002060006101000a81548173ffffffffffffffffffffffffffffffffffffffff021916908373ffffffffffffffffffffffffffffffffffffffff160217905550808273ffffffffffffffffffffffffffffffffffffffff168473ffffffffffffffffffffffffffffffffffffffff167fddf252ad1be2c89b69c2b068fc378daa952ba7f163c4a11628f55a4df523b3ef60405160405180910390a4505050565b600081600001549050919050565b6001816000016000828254019250508190555050565b6113e18282604051806020016040528060008152506117e1565b5050565b60006113f08261080e565b90506113fe816000846117dc565b611409600083610fb0565b6001600360008373ffffffffffffffffffffffffffffffffffffffff1673ffffffffffffffffffffffffffffffffffffffff168152602001908152602001600020600082825461145991906125ed565b925050819055506002600083815260200190815260200160002060006101000a81549073ffffffffffffffffffffffffffffffffffffffff021916905581600073ffffffffffffffffffffffffffffffffffffffff168273ffffffffffffffffffffffffffffffffffffffff167fddf252ad1be2c89b69c2b068fc378daa952ba7f163c4a11628f55a4df523b3ef60405160405180910390a45050565b6000600660009054906101000a900473ffffffffffffffffffffffffffffffffffffffff16905081600660006101000a81548173ffffffffffffffffffffffffffffffffffffffff021916908373ffffffffffffffffffffffffffffffffffffffff1602179055508173ffffffffffffffffffffffffffffffffffffffff168173ffffffffffffffffffffffffffffffffffffffff167f8be0079c531659141344cd1fd0a4f28419497f9722a3daafe3b4186f6b6457e060405160405180910390a35050565b6115c7848484611147565b6115d38484848461183c565b611612576040517f08c379a000000000000000000000000000000000000000000000000000000000815260040161160990612292565b60405180910390fd5b50505050565b606060405180602001604052806000815250905090565b60606000821415611677576040518060400160405280600181526020017f300000000000000000000000000000000000000000000000000000000000000081525090506117d7565b600082905060005b600082146116a95780806116929061273a565b915050600a826116a291906125bc565b915061167f565b60008167ffffffffffffffff8111156116eb577f4e487b7100000000000000000000000000000000000000000000000000000000600052604160045260246000fd5b6040519080825280601f01601f19166020018201604052801561171d5781602001600182028036833780820191505090505b5090505b600085146117d05760018261173691906125ed565b9150600a856117459190612783565b60306117519190612566565b60f81b81838151811061178d577f4e487b7100000000000000000000000000000000000000000000000000000000600052603260045260246000fd5b60200101907effffffffffffffffffffffffffffffffffffffffffffffffffffffffffffff1916908160001a905350600a856117c991906125bc565b9450611721565b8093505050505b919050565b505050565b6117eb83836119d3565b6117f8600084848461183c565b611837576040517f08c379a000000000000000000000000000000000000000000000000000000000815260040161182e90612292565b60405180910390fd5b505050565b600061185d8473ffffffffffffffffffffffffffffffffffffffff16611ba1565b156119c6578373ffffffffffffffffffffffffffffffffffffffff1663150b7a02611886610fa8565b8786866040518563ffffffff1660e01b81526004016118a89493929190612209565b602060405180830381600087803b1580156118c257600080fd5b505af19250505080156118f357506040513d601f19601f820116820180604052508101906118f09190611e55565b60015b611976573d8060008114611923576040519150601f19603f3d011682016040523d82523d6000602084013e611928565b606091505b5060008151141561196e576040517f08c379a000000000000000000000000000000000000000000000000000000000815260040161196590612292565b60405180910390fd5b805181602001fd5b63150b7a0260e01b7bffffffffffffffffffffffffffffffffffffffffffffffffffffffff1916817bffffffffffffffffffffffffffffffffffffffffffffffffffffffff1916149150506119cb565b600190505b949350505050565b600073ffffffffffffffffffffffffffffffffffffffff168273ffffffffffffffffffffffffffffffffffffffff161415611a43576040517f08c379a0000000000000000000000000000000000000000000000000000000008152600401611a3a906123b2565b60405180910390fd5b611a4c81610f3c565b15611a8c576040517f08c379a0000000000000000000000000000000000000000000000000000000008152600401611a83906122d2565b60405180910390fd5b611a98600083836117dc565b6001600360008473ffffffffffffffffffffffffffffffffffffffff1673ffffffffffffffffffffffffffffffffffffffff1681526020019081526020016000206000828254611ae89190612566565b92505081905550816002600083815260200190815260200160002060006101000a81548173ffffffffffffffffffffffffffffffffffffffff021916908373ffffffffffffffffffffffffffffffffffffffff160217905550808273ffffffffffffffffffffffffffffffffffffffff16600073ffffffffffffffffffffffffffffffffffffffff167fddf252ad1be2c89b69c2b068fc378daa952ba7f163c4a11628f55a4df523b3ef60405160405180910390a45050565b600080823b905060008111915050919050565b6000611bc7611bc2846124f2565b6124cd565b905082815260208101848484011115611bdf57600080fd5b611bea848285612695565b509392505050565b600081359050611c0181612d28565b92915050565b600081359050611c1681612d3f565b92915050565b600081359050611c2b81612d56565b92915050565b600081519050611c4081612d56565b92915050565b600082601f830112611c5757600080fd5b8135611c67848260208601611bb4565b91505092915050565b600081359050611c7f81612d6d565b92915050565b600060208284031215611c9757600080fd5b6000611ca584828501611bf2565b91505092915050565b60008060408385031215611cc157600080fd5b6000611ccf85828601611bf2565b9250506020611ce085828601611bf2565b9150509250929050565b600080600060608486031215611cff57600080fd5b6000611d0d86828701611bf2565b9350506020611d1e86828701611bf2565b9250506040611d2f86828701611c70565b9150509250925092565b60008060008060808587031215611d4f57600080fd5b6000611d5d87828801611bf2565b9450506020611d6e87828801611bf2565b9350506040611d7f87828801611c70565b925050606085013567ffffffffffffffff811115611d9c57600080fd5b611da887828801611c46565b91505092959194509250565b60008060408385031215611dc757600080fd5b6000611dd585828601611bf2565b9250506020611de685828601611c07565b9150509250929050565b60008060408385031215611e0357600080fd5b6000611e1185828601611bf2565b9250506020611e2285828601611c70565b9150509250929050565b600060208284031215611e3e57600080fd5b6000611e4c84828501611c1c565b91505092915050565b600060208284031215611e6757600080fd5b6000611e7584828501611c31565b91505092915050565b600060208284031215611e9057600080fd5b6000611e9e84828501611c70565b91505092915050565b611eb081612621565b82525050565b611ebf81612633565b82525050565b6000611ed082612523565b611eda8185612539565b9350611eea8185602086016126a4565b611ef381612870565b840191505092915050565b6000611f098261252e565b611f13818561254a565b9350611f238185602086016126a4565b611f2c81612870565b840191505092915050565b6000611f428261252e565b611f4c818561255b565b9350611f5c8185602086016126a4565b80840191505092915050565b6000611f7560328361254a565b9150611f8082612881565b604082019050919050565b6000611f9860268361254a565b9150611fa3826128d0565b604082019050919050565b6000611fbb601c8361254a565b9150611fc68261291f565b602082019050919050565b6000611fde60248361254a565b9150611fe982612948565b604082019050919050565b600061200160198361254a565b915061200c82612997565b602082019050919050565b6000612024602c8361254a565b915061202f826129c0565b604082019050919050565b600061204760388361254a565b915061205282612a0f565b604082019050919050565b600061206a602a8361254a565b915061207582612a5e565b604082019050919050565b600061208d60298361254a565b915061209882612aad565b604082019050919050565b60006120b060208361254a565b91506120bb82612afc565b602082019050919050565b60006120d3602c8361254a565b91506120de82612b25565b604082019050919050565b60006120f660208361254a565b915061210182612b74565b602082019050919050565b600061211960298361254a565b915061212482612b9d565b604082019050919050565b600061213c602f8361254a565b915061214782612bec565b604082019050919050565b600061215f60218361254a565b915061216a82612c3b565b604082019050919050565b600061218260318361254a565b915061218d82612c8a565b604082019050919050565b60006121a560308361254a565b91506121b082612cd9565b604082019050919050565b6121c48161268b565b82525050565b60006121d68285611f37565b91506121e28284611f37565b91508190509392505050565b60006020820190506122036000830184611ea7565b92915050565b600060808201905061221e6000830187611ea7565b61222b6020830186611ea7565b61223860408301856121bb565b818103606083015261224a8184611ec5565b905095945050505050565b600060208201905061226a6000830184611eb6565b92915050565b6000602082019050818103600083015261228a8184611efe565b905092915050565b600060208201905081810360008301526122ab81611f68565b9050919050565b600060208201905081810360008301526122cb81611f8b565b9050919050565b600060208201905081810360008301526122eb81611fae565b9050919050565b6000602082019050818103600083015261230b81611fd1565b9050919050565b6000602082019050818103600083015261232b81611ff4565b9050919050565b6000602082019050818103600083015261234b81612017565b9050919050565b6000602082019050818103600083015261236b8161203a565b9050919050565b6000602082019050818103600083015261238b8161205d565b9050919050565b600060208201905081810360008301526123ab81612080565b9050919050565b600060208201905081810360008301526123cb816120a3565b9050919050565b600060208201905081810360008301526123eb816120c6565b9050919050565b6000602082019050818103600083015261240b816120e9565b9050919050565b6000602082019050818103600083015261242b8161210c565b9050919050565b6000602082019050818103600083015261244b8161212f565b9050919050565b6000602082019050818103600083015261246b81612152565b9050919050565b6000602082019050818103600083015261248b81612175565b9050919050565b600060208201905081810360008301526124ab81612198565b9050919050565b60006020820190506124c760008301846121bb565b92915050565b60006124d76124e8565b90506124e38282612709565b919050565b6000604051905090565b600067ffffffffffffffff82111561250d5761250c612841565b5b61251682612870565b9050602081019050919050565b600081519050919050565b600081519050919050565b600082825260208201905092915050565b600082825260208201905092915050565b600081905092915050565b60006125718261268b565b915061257c8361268b565b9250827fffffffffffffffffffffffffffffffffffffffffffffffffffffffffffffffff038211156125b1576125b06127b4565b5b828201905092915050565b60006125c78261268b565b91506125d28361268b565b9250826125e2576125e16127e3565b5b828204905092915050565b60006125f88261268b565b91506126038361268b565b925082821015612616576126156127b4565b5b828203905092915050565b600061262c8261266b565b9050919050565b60008115159050919050565b60007fffffffff0000000000000000000000000000000000000000000000000000000082169050919050565b600073ffffffffffffffffffffffffffffffffffffffff82169050919050565b6000819050919050565b82818337600083830152505050565b60005b838110156126c25780820151818401526020810190506126a7565b838111156126d1576000848401525b50505050565b600060028204905060018216806126ef57607f821691505b6020821081141561270357612702612812565b5b50919050565b61271282612870565b810181811067ffffffffffffffff8211171561273157612730612841565b5b80604052505050565b60006127458261268b565b91507fffffffffffffffffffffffffffffffffffffffffffffffffffffffffffffffff821415612778576127776127b4565b5b600182019050919050565b600061278e8261268b565b91506127998361268b565b9250826127a9576127a86127e3565b5b828206905092915050565b7f4e487b7100000000000000000000000000000000000000000000000000000000600052601160045260246000fd5b7f4e487b7100000000000000000000000000000000000000000000000000000000600052601260045260246000fd5b7f4e487b7100000000000000000000000000000000000000000000000000000000600052602260045260246000fd5b7f4e487b7100000000000000000000000000000000000000000000000000000000600052604160045260246000fd5b6000601f19601f8301169050919050565b7f4552433732313a207472616e7366657220746f206e6f6e20455243373231526560008201527f63656976657220696d706c656d656e7465720000000000000000000000000000602082015250565b7f4f776e61626c653a206e6577206f776e657220697320746865207a65726f206160008201527f6464726573730000000000000000000000000000000000000000000000000000602082015250565b7f4552433732313a20746f6b656e20616c7265616479206d696e74656400000000600082015250565b7f4552433732313a207472616e7366657220746f20746865207a65726f2061646460008201527f7265737300000000000000000000000000000000000000000000000000000000602082015250565b7f4552433732313a20617070726f766520746f2063616c6c657200000000000000600082015250565b7f4552433732313a206f70657261746f7220717565727920666f72206e6f6e657860008201527f697374656e7420746f6b656e0000000000000000000000000000000000000000602082015250565b7f4552433732313a20617070726f76652063616c6c6572206973206e6f74206f7760008201527f6e6572206e6f7220617070726f76656420666f7220616c6c0000000000000000602082015250565b7f4552433732313a2062616c616e636520717565727920666f7220746865207a6560008201527f726f206164647265737300000000000000000000000000000000000000000000602082015250565b7f4552433732313a206f776e657220717565727920666f72206e6f6e657869737460008201527f656e7420746f6b656e0000000000000000000000000000000000000000000000602082015250565b7f4552433732313a206d696e7420746f20746865207a65726f2061646472657373600082015250565b7f4552433732313a20617070726f76656420717565727920666f72206e6f6e657860008201527f697374656e7420746f6b656e0000000000000000000000000000000000000000602082015250565b7f4f776e61626c653a2063616c6c6572206973206e6f7420746865206f776e6572600082015250565b7f4552433732313a207472616e73666572206f6620746f6b656e2074686174206960008201527f73206e6f74206f776e0000000000000000000000000000000000000000000000602082015250565b7f4552433732314d657461646174613a2055524920717565727920666f72206e6f60008201527f6e6578697374656e7420746f6b656e0000000000000000000000000000000000602082015250565b7f4552433732313a20617070726f76616c20746f2063757272656e74206f776e6560008201527f7200000000000000000000000000000000000000000000000000000000000000602082015250565b7f4552433732313a207472616e736665722063616c6c6572206973206e6f74206f60008201527f776e6572206e6f7220617070726f766564000000000000000000000000000000602082015250565b7f4552433732314275726e61626c653a2063616c6c6572206973206e6f74206f7760008201527f6e6572206e6f7220617070726f76656400000000000000000000000000000000602082015250565b612d3181612621565b8114612d3c57600080fd5b50565b612d4881612633565b8114612d5357600080fd5b50565b612d5f8161263f565b8114612d6a57600080fd5b50565b612d768161268b565b8114612d8157600080fd5b5056fea2646970667358221220e33c892515a359aef1770daf4d3e98f964f11e1923361950055a937da8972ca464736f6c63430008040033",
  "linkReferences": {},
  "deployedLinkReferences": {}
}